{
  "contractName": "AccessLogger",
  "abi": [
    {
      "inputs": [
        {
          "internalType": "address",
          "name": "_backend",
          "type": "address"
        }
      ],
      "stateMutability": "nonpayable",
      "type": "constructor"
    },
    {
      "anonymous": false,
      "inputs": [
        {
          "indexed": true,
          "internalType": "string",
          "name": "userId",
          "type": "string"
        },
        {
          "indexed": true,
          "internalType": "string",
          "name": "deviceId",
          "type": "string"
        },
        {
          "indexed": false,
          "internalType": "bool",
          "name": "rfidMatched",
          "type": "bool"
        },
        {
          "indexed": false,
          "internalType": "bool",
          "name": "imageMatched",
          "type": "bool"
        },
        {
          "indexed": false,
          "internalType": "bool",
          "name": "accessGranted",
          "type": "bool"
        },
        {
          "indexed": false,
          "internalType": "uint256",
          "name": "timestamp",
          "type": "uint256"
        },
        {
          "indexed": true,
          "internalType": "uint256",
          "name": "logId",
          "type": "uint256"
        }
      ],
      "name": "AccessLogged",
      "type": "event"
    },
    {
      "anonymous": false,
      "inputs": [
        {
          "indexed": true,
          "internalType": "address",
          "name": "wallet",
          "type": "address"
        },
        {
          "indexed": false,
          "internalType": "bool",
          "name": "isAdmin",
          "type": "bool"
        }
      ],
      "name": "AdminVerified",
      "type": "event"
    },
    {
      "anonymous": false,
      "inputs": [
        {
          "indexed": false,
          "internalType": "address",
          "name": "oldBackend",
          "type": "address"
        },
        {
          "indexed": false,
          "internalType": "address",
          "name": "newBackend",
          "type": "address"
        }
      ],
      "name": "BackendUpdated",
      "type": "event"
    },
    {
      "inputs": [
        {
          "internalType": "uint256",
          "name": "",
          "type": "uint256"
        }
      ],
      "name": "accessLogs",
      "outputs": [
        {
          "internalType": "string",
          "name": "userId",
          "type": "string"
        },
        {
          "internalType": "string",
          "name": "deviceId",
          "type": "string"
        },
        {
          "internalType": "uint256",
          "name": "timestamp",
          "type": "uint256"
        },
        {
          "internalType": "bool",
          "name": "rfidMatched",
          "type": "bool"
        },
        {
          "internalType": "bool",
          "name": "imageMatched",
          "type": "bool"
        },
        {
          "internalType": "bool",
          "name": "accessGranted",
          "type": "bool"
        }
      ],
      "stateMutability": "view",
      "type": "function",
      "constant": true
    },
    {
      "inputs": [],
      "name": "admin",
      "outputs": [
        {
          "internalType": "address",
          "name": "",
          "type": "address"
        }
      ],
      "stateMutability": "view",
      "type": "function",
      "constant": true
    },
    {
      "inputs": [],
      "name": "backend",
      "outputs": [
        {
          "internalType": "address",
          "name": "",
          "type": "address"
        }
      ],
      "stateMutability": "view",
      "type": "function",
      "constant": true
    },
    {
      "inputs": [
        {
          "internalType": "string",
          "name": "",
          "type": "string"
        },
        {
          "internalType": "uint256",
          "name": "",
          "type": "uint256"
        }
      ],
      "name": "deviceLogs",
      "outputs": [
        {
          "internalType": "uint256",
          "name": "",
          "type": "uint256"
        }
      ],
      "stateMutability": "view",
      "type": "function",
      "constant": true
    },
    {
      "inputs": [],
      "name": "totalLogs",
      "outputs": [
        {
          "internalType": "uint256",
          "name": "",
          "type": "uint256"
        }
      ],
      "stateMutability": "view",
      "type": "function",
      "constant": true
    },
    {
      "inputs": [
        {
          "internalType": "string",
          "name": "",
          "type": "string"
        },
        {
          "internalType": "uint256",
          "name": "",
          "type": "uint256"
        }
      ],
      "name": "userLogs",
      "outputs": [
        {
          "internalType": "uint256",
          "name": "",
          "type": "uint256"
        }
      ],
      "stateMutability": "view",
      "type": "function",
      "constant": true
    },
    {
      "inputs": [
        {
          "internalType": "string",
          "name": "_userId",
          "type": "string"
        },
        {
          "internalType": "string",
          "name": "_deviceId",
          "type": "string"
        },
        {
          "internalType": "bool",
          "name": "_rfidMatched",
          "type": "bool"
        },
        {
          "internalType": "bool",
          "name": "_imageMatched",
          "type": "bool"
        },
        {
          "internalType": "bool",
          "name": "_accessGranted",
          "type": "bool"
        }
      ],
      "name": "logAccessAttempt",
      "outputs": [],
      "stateMutability": "nonpayable",
      "type": "function"
    },
    {
      "inputs": [],
      "name": "getAdmin",
      "outputs": [
        {
          "internalType": "address",
          "name": "adminAddress",
          "type": "address"
        }
      ],
      "stateMutability": "view",
      "type": "function",
      "constant": true
    },
    {
      "inputs": [],
      "name": "getAllAccessLogs",
      "outputs": [
        {
          "components": [
            {
              "internalType": "string",
              "name": "userId",
              "type": "string"
            },
            {
              "internalType": "string",
              "name": "deviceId",
              "type": "string"
            },
            {
              "internalType": "uint256",
              "name": "timestamp",
              "type": "uint256"
            },
            {
              "internalType": "bool",
              "name": "rfidMatched",
              "type": "bool"
            },
            {
              "internalType": "bool",
              "name": "imageMatched",
              "type": "bool"
            },
            {
              "internalType": "bool",
              "name": "accessGranted",
              "type": "bool"
            }
          ],
          "internalType": "struct AccessLogger.AccessLog[]",
          "name": "allLogs",
          "type": "tuple[]"
        }
      ],
      "stateMutability": "view",
      "type": "function",
      "constant": true
    },
    {
      "inputs": [],
      "name": "getLogCount",
      "outputs": [
        {
          "internalType": "uint256",
          "name": "logCount",
          "type": "uint256"
        }
      ],
      "stateMutability": "view",
      "type": "function",
      "constant": true
    },
    {
      "inputs": [
        {
          "internalType": "uint256",
          "name": "_count",
          "type": "uint256"
        }
      ],
      "name": "getRecentLogs",
      "outputs": [
        {
          "components": [
            {
              "internalType": "string",
              "name": "userId",
              "type": "string"
            },
            {
              "internalType": "string",
              "name": "deviceId",
              "type": "string"
            },
            {
              "internalType": "uint256",
              "name": "timestamp",
              "type": "uint256"
            },
            {
              "internalType": "bool",
              "name": "rfidMatched",
              "type": "bool"
            },
            {
              "internalType": "bool",
              "name": "imageMatched",
              "type": "bool"
            },
            {
              "internalType": "bool",
              "name": "accessGranted",
              "type": "bool"
            }
          ],
          "internalType": "struct AccessLogger.AccessLog[]",
          "name": "recentLogs",
          "type": "tuple[]"
        }
      ],
      "stateMutability": "view",
      "type": "function",
      "constant": true
    },
    {
      "inputs": [
        {
          "internalType": "string",
          "name": "_userId",
          "type": "string"
        }
      ],
      "name": "getLogsByUser",
      "outputs": [
        {
          "components": [
            {
              "internalType": "string",
              "name": "userId",
              "type": "string"
            },
            {
              "internalType": "string",
              "name": "deviceId",
              "type": "string"
            },
            {
              "internalType": "uint256",
              "name": "timestamp",
              "type": "uint256"
            },
            {
              "internalType": "bool",
              "name": "rfidMatched",
              "type": "bool"
            },
            {
              "internalType": "bool",
              "name": "imageMatched",
              "type": "bool"
            },
            {
              "internalType": "bool",
              "name": "accessGranted",
              "type": "bool"
            }
          ],
          "internalType": "struct AccessLogger.AccessLog[]",
          "name": "userAccessLogs",
          "type": "tuple[]"
        }
      ],
      "stateMutability": "view",
      "type": "function",
      "constant": true
    },
    {
      "inputs": [
        {
          "internalType": "string",
          "name": "_deviceId",
          "type": "string"
        }
      ],
      "name": "getLogsByDevice",
      "outputs": [
        {
          "components": [
            {
              "internalType": "string",
              "name": "userId",
              "type": "string"
            },
            {
              "internalType": "string",
              "name": "deviceId",
              "type": "string"
            },
            {
              "internalType": "uint256",
              "name": "timestamp",
              "type": "uint256"
            },
            {
              "internalType": "bool",
              "name": "rfidMatched",
              "type": "bool"
            },
            {
              "internalType": "bool",
              "name": "imageMatched",
              "type": "bool"
            },
            {
              "internalType": "bool",
              "name": "accessGranted",
              "type": "bool"
            }
          ],
          "internalType": "struct AccessLogger.AccessLog[]",
          "name": "deviceAccessLogs",
          "type": "tuple[]"
        }
      ],
      "stateMutability": "view",
      "type": "function",
      "constant": true
    },
    {
      "inputs": [],
      "name": "getSuspiciousLogs",
      "outputs": [
        {
          "components": [
            {
              "internalType": "string",
              "name": "userId",
              "type": "string"
            },
            {
              "internalType": "string",
              "name": "deviceId",
              "type": "string"
            },
            {
              "internalType": "uint256",
              "name": "timestamp",
              "type": "uint256"
            },
            {
              "internalType": "bool",
              "name": "rfidMatched",
              "type": "bool"
            },
            {
              "internalType": "bool",
              "name": "imageMatched",
              "type": "bool"
            },
            {
              "internalType": "bool",
              "name": "accessGranted",
              "type": "bool"
            }
          ],
          "internalType": "struct AccessLogger.AccessLog[]",
          "name": "suspiciousAccessLogs",
          "type": "tuple[]"
        }
      ],
      "stateMutability": "view",
      "type": "function",
      "constant": true
    },
    {
      "inputs": [],
      "name": "getAccessStats",
      "outputs": [
        {
          "internalType": "uint256",
          "name": "totalAttempts",
          "type": "uint256"
        },
        {
          "internalType": "uint256",
          "name": "successfulAccess",
          "type": "uint256"
        },
        {
          "internalType": "uint256",
          "name": "failedAccess",
          "type": "uint256"
        },
        {
          "internalType": "uint256",
          "name": "suspiciousAttempts",
          "type": "uint256"
        },
        {
          "internalType": "uint256",
          "name": "avgAccessTime",
          "type": "uint256"
        }
      ],
      "stateMutability": "view",
      "type": "function",
      "constant": true
    },
    {
      "inputs": [
        {
          "internalType": "address",
          "name": "_newBackend",
          "type": "address"
        }
      ],
      "name": "updateBackend",
      "outputs": [],
      "stateMutability": "nonpayable",
      "type": "function"
    },
    {
      "inputs": [],
      "name": "getContractInfo",
      "outputs": [
        {
          "internalType": "address",
          "name": "backendAddr",
          "type": "address"
        },
        {
          "internalType": "address",
          "name": "adminAddr",
          "type": "address"
        },
        {
          "internalType": "uint256",
          "name": "totalLogCount",
          "type": "uint256"
        },
        {
          "internalType": "uint256",
          "name": "firstLogTime",
          "type": "uint256"
        },
        {
          "internalType": "uint256",
          "name": "lastLogTime",
          "type": "uint256"
        }
      ],
      "stateMutability": "view",
      "type": "function",
      "constant": true
    }
  ],
  "bytecode": "0x60a06040523480156200001157600080fd5b5060405162002ad938038062002ad983398181016040528101906200003791906200018f565b600073ffffffffffffffffffffffffffffffffffffffff168173ffffffffffffffffffffffffffffffffffffffff1603620000a9576040517f08c379a0000000000000000000000000000000000000000000000000000000008152600401620000a09062000222565b60405180910390fd5b80600160006101000a81548173ffffffffffffffffffffffffffffffffffffffff021916908373ffffffffffffffffffffffffffffffffffffffff1602179055503373ffffffffffffffffffffffffffffffffffffffff1660808173ffffffffffffffffffffffffffffffffffffffff16815250505062000244565b600080fd5b600073ffffffffffffffffffffffffffffffffffffffff82169050919050565b600062000157826200012a565b9050919050565b62000169816200014a565b81146200017557600080fd5b50565b60008151905062000189816200015e565b92915050565b600060208284031215620001a857620001a762000125565b5b6000620001b88482850162000178565b91505092915050565b600082825260208201905092915050565b7f496e76616c6964206261636b656e642061646472657373000000000000000000600082015250565b60006200020a601783620001c1565b91506200021782620001d2565b602082019050919050565b600060208201905081810360008301526200023d81620001fb565b9050919050565b6080516128646200027560003960008181610b5201528181610bec015281816110d401526119fc01526128646000f3fe608060405234801561001057600080fd5b506004361061010b5760003560e01c806387e705ed116100a2578063cb459ffd11610071578063cb459ffd146102c9578063cbcee4f0146102e7578063e4ce066214610317578063e52e64f914610335578063f851a440146103655761010b565b806387e705ed1461022b578063a71faa821461024d578063ac4260d31461027d578063c0ed969a146102ad5761010b565b80636ae2892b116100de5780636ae2892b1461019f5780636e9960c3146101bb578063799b1568146101d95780637cc1f867146102095761010b565b8063099e41331461011057806359741ba01461012e5780635dea80f114610163578063618033db14610181575b600080fd5b610118610383565b6040516101259190611a9b565b60405180910390f35b61014860048036038101906101439190611b00565b6103a9565b60405161015a96959493929190611be7565b60405180910390f35b61016b61052c565b6040516101789190611e10565b60405180910390f35b61018961089d565b6040516101969190611e32565b60405180910390f35b6101b960048036038101906101b49190611fae565b6108a7565b005b6101c3610b4e565b6040516101d09190611a9b565b60405180910390f35b6101f360048036038101906101ee9190612061565b610b76565b6040516102009190611e32565b60405180910390f35b610211610bbd565b6040516102229594939291906120bd565b60405180910390f35b610233610c9b565b604051610244959493929190612110565b60405180910390f35b61026760048036038101906102629190612163565b610db7565b6040516102749190611e10565b60405180910390f35b61029760048036038101906102929190612061565b61108b565b6040516102a49190611e32565b60405180910390f35b6102c760048036038101906102c291906121d8565b6110d2565b005b6102d1611274565b6040516102de9190611e10565b60405180910390f35b61030160048036038101906102fc9190612163565b611452565b60405161030e9190611e10565b60405180910390f35b61031f611726565b60405161032c9190611e32565b60405180910390f35b61034f600480360381019061034a9190611b00565b61172c565b60405161035c9190611e10565b60405180910390f35b61036d6119fa565b60405161037a9190611a9b565b60405180910390f35b600160009054906101000a900473ffffffffffffffffffffffffffffffffffffffff1681565b600081815481106103b957600080fd5b90600052602060002090600402016000915090508060000180546103dc90612234565b80601f016020809104026020016040519081016040528092919081815260200182805461040890612234565b80156104555780601f1061042a57610100808354040283529160200191610455565b820191906000526020600020905b81548152906001019060200180831161043857829003601f168201915b50505050509080600101805461046a90612234565b80601f016020809104026020016040519081016040528092919081815260200182805461049690612234565b80156104e35780601f106104b8576101008083540402835291602001916104e3565b820191906000526020600020905b8154815290600101906020018083116104c657829003601f168201915b5050505050908060020154908060030160009054906101000a900460ff16908060030160019054906101000a900460ff16908060030160029054906101000a900460ff16905086565b60606000805b6002548110156105d257600081815481106105505761054f612265565b5b906000526020600020906004020160030160009054906101000a900460ff1680156105ab57506000818154811061058a57610589612265565b5b906000526020600020906004020160030160019054906101000a900460ff16155b156105bf5781806105bb906122c3565b9250505b80806105ca906122c3565b915050610532565b508067ffffffffffffffff8111156105ed576105ec611e57565b5b60405190808252806020026020018201604052801561062657816020015b610613611a1e565b81526020019060019003908161060b5790505b5091506000805b600254811015610897576000818154811061064b5761064a612265565b5b906000526020600020906004020160030160009054906101000a900460ff1680156106a657506000818154811061068557610684612265565b5b906000526020600020906004020160030160019054906101000a900460ff16155b1561088457600081815481106106bf576106be612265565b5b90600052602060002090600402016040518060c00160405290816000820180546106e890612234565b80601f016020809104026020016040519081016040528092919081815260200182805461071490612234565b80156107615780601f1061073657610100808354040283529160200191610761565b820191906000526020600020905b81548152906001019060200180831161074457829003601f168201915b5050505050815260200160018201805461077a90612234565b80601f01602080910402602001604051908101604052809291908181526020018280546107a690612234565b80156107f35780601f106107c8576101008083540402835291602001916107f3565b820191906000526020600020905b8154815290600101906020018083116107d657829003601f168201915b50505050508152602001600282015481526020016003820160009054906101000a900460ff161515151581526020016003820160019054906101000a900460ff161515151581526020016003820160029054906101000a900460ff16151515158152505084838151811061086a57610869612265565b5b60200260200101819052508180610880906122c3565b9250505b808061088f906122c3565b91505061062d565b50505090565b6000600254905090565b600160009054906101000a900473ffffffffffffffffffffffffffffffffffffffff1673ffffffffffffffffffffffffffffffffffffffff163373ffffffffffffffffffffffffffffffffffffffff1614610937576040517f08c379a000000000000000000000000000000000000000000000000000000000815260040161092e90612357565b60405180910390fd5b6000600254905060006040518060c00160405280888152602001878152602001428152602001861515815260200185151581526020018415158152509050600081908060018154018082558091505060019003906000526020600020906004020160009091909190915060008201518160000190816109b69190612523565b5060208201518160010190816109cc9190612523565b506040820151816002015560608201518160030160006101000a81548160ff02191690831515021790555060808201518160030160016101000a81548160ff02191690831515021790555060a08201518160030160026101000a81548160ff021916908315150217905550505060026000815480929190610a4c906122c3565b9190505550600387604051610a619190612631565b9081526020016040518091039020829080600181540180825580915050600190039060005260206000200160009091909190915055600486604051610aa69190612631565b90815260200160405180910390208290806001815401808255809150506001900390600052602060002001600090919091909150558186604051610aea9190612631565b604051809103902088604051610b009190612631565b60405180910390207f351e0fb79c341ce1b1458bbba23448d118db32d82a825610a3a8bd792bca4d0e88888842604051610b3d9493929190612648565b60405180910390a450505050505050565b60007f0000000000000000000000000000000000000000000000000000000000000000905090565b6003828051602081018201805184825260208301602085012081835280955050505050508181548110610ba857600080fd5b90600052602060002001600091509150505481565b6000806000806000600160009054906101000a900473ffffffffffffffffffffffffffffffffffffffff1694507f000000000000000000000000000000000000000000000000000000000000000093506002549250600060025411610c23576000610c4a565b60008081548110610c3757610c36612265565b5b9060005260206000209060040201600201545b9150600060025411610c5d576000610c92565b60006001600254610c6e919061268d565b81548110610c7f57610c7e612265565b5b9060005260206000209060040201600201545b90509091929394565b6000806000806000600254945060008060005b600254811015610d955760008181548110610ccc57610ccb612265565b5b906000526020600020906004020160030160029054906101000a900460ff1615610cff578280610cfb906122c3565b9350505b60008181548110610d1357610d12612265565b5b906000526020600020906004020160030160009054906101000a900460ff168015610d6e575060008181548110610d4d57610d4c612265565b5b906000526020600020906004020160030160019054906101000a900460ff16155b15610d82578180610d7e906122c3565b9250505b8080610d8d906122c3565b915050610cae565b508195508187610da5919061268d565b94508093506000925050509091929394565b60606000600383604051610dcb9190612631565b9081526020016040518091039020805480602002602001604051908101604052809291908181526020018280548015610e2357602002820191906000526020600020905b815481526020019060010190808311610e0f575b50505050509050805167ffffffffffffffff811115610e4557610e44611e57565b5b604051908082528060200260200182016040528015610e7e57816020015b610e6b611a1e565b815260200190600190039081610e635790505b50915060005b8151811015611084576000828281518110610ea257610ea1612265565b5b602002602001015181548110610ebb57610eba612265565b5b90600052602060002090600402016040518060c0016040529081600082018054610ee490612234565b80601f0160208091040260200160405190810160405280929190818152602001828054610f1090612234565b8015610f5d5780601f10610f3257610100808354040283529160200191610f5d565b820191906000526020600020905b815481529060010190602001808311610f4057829003601f168201915b50505050508152602001600182018054610f7690612234565b80601f0160208091040260200160405190810160405280929190818152602001828054610fa290612234565b8015610fef5780601f10610fc457610100808354040283529160200191610fef565b820191906000526020600020905b815481529060010190602001808311610fd257829003601f168201915b50505050508152602001600282015481526020016003820160009054906101000a900460ff161515151581526020016003820160019054906101000a900460ff161515151581526020016003820160029054906101000a900460ff16151515158152505083828151811061106657611065612265565b5b6020026020010181905250808061107c906122c3565b915050610e84565b5050919050565b60048280516020810182018051848252602083016020850120818352809550505050505081815481106110bd57600080fd5b90600052602060002001600091509150505481565b7f000000000000000000000000000000000000000000000000000000000000000073ffffffffffffffffffffffffffffffffffffffff163373ffffffffffffffffffffffffffffffffffffffff1614611160576040517f08c379a00000000000000000000000000000000000000000000000000000000081526004016111579061270d565b60405180910390fd5b600073ffffffffffffffffffffffffffffffffffffffff168173ffffffffffffffffffffffffffffffffffffffff16036111cf576040517f08c379a00000000000000000000000000000000000000000000000000000000081526004016111c690612779565b60405180910390fd5b6000600160009054906101000a900473ffffffffffffffffffffffffffffffffffffffff16905081600160006101000a81548173ffffffffffffffffffffffffffffffffffffffff021916908373ffffffffffffffffffffffffffffffffffffffff1602179055507f37f6c561371bb449a598aaf7e5528fc87ad233e82669756cd67fec9c5f665a7b8183604051611268929190612799565b60405180910390a15050565b60606000805480602002602001604051908101604052809291908181526020016000905b8282101561144957838290600052602060002090600402016040518060c00160405290816000820180546112cb90612234565b80601f01602080910402602001604051908101604052809291908181526020018280546112f790612234565b80156113445780601f1061131957610100808354040283529160200191611344565b820191906000526020600020905b81548152906001019060200180831161132757829003601f168201915b5050505050815260200160018201805461135d90612234565b80601f016020809104026020016040519081016040528092919081815260200182805461138990612234565b80156113d65780601f106113ab576101008083540402835291602001916113d6565b820191906000526020600020905b8154815290600101906020018083116113b957829003601f168201915b50505050508152602001600282015481526020016003820160009054906101000a900460ff161515151581526020016003820160019054906101000a900460ff161515151581526020016003820160029054906101000a900460ff16151515158152505081526020019060010190611298565b50505050905090565b606060006004836040516114669190612631565b90815260200160405180910390208054806020026020016040519081016040528092919081815260200182805480156114be57602002820191906000526020600020905b8154815260200190600101908083116114aa575b50505050509050805167ffffffffffffffff8111156114e0576114df611e57565b5b60405190808252806020026020018201604052801561151957816020015b611506611a1e565b8152602001906001900390816114fe5790505b50915060005b815181101561171f57600082828151811061153d5761153c612265565b5b60200260200101518154811061155657611555612265565b5b90600052602060002090600402016040518060c001604052908160008201805461157f90612234565b80601f01602080910402602001604051908101604052809291908181526020018280546115ab90612234565b80156115f85780601f106115cd576101008083540402835291602001916115f8565b820191906000526020600020905b8154815290600101906020018083116115db57829003601f168201915b5050505050815260200160018201805461161190612234565b80601f016020809104026020016040519081016040528092919081815260200182805461163d90612234565b801561168a5780601f1061165f5761010080835404028352916020019161168a565b820191906000526020600020905b81548152906001019060200180831161166d57829003601f168201915b50505050508152602001600282015481526020016003820160009054906101000a900460ff161515151581526020016003820160019054906101000a900460ff161515151581526020016003820160029054906101000a900460ff16151515158152505083828151811061170157611700612265565b5b60200260200101819052508080611717906122c3565b91505061151f565b5050919050565b60025481565b60606032821115611772576040517f08c379a00000000000000000000000000000000000000000000000000000000081526004016117699061280e565b60405180910390fd5b60008260025411611784576000611793565b82600254611792919061268d565b5b90508267ffffffffffffffff8111156117af576117ae611e57565b5b6040519080825280602002602001820160405280156117e857816020015b6117d5611a1e565b8152602001906001900390816117cd5790505b5091506000808290505b6002548110801561180257508482105b156119f2576000818154811061181b5761181a612265565b5b90600052602060002090600402016040518060c001604052908160008201805461184490612234565b80601f016020809104026020016040519081016040528092919081815260200182805461187090612234565b80156118bd5780601f10611892576101008083540402835291602001916118bd565b820191906000526020600020905b8154815290600101906020018083116118a057829003601f168201915b505050505081526020016001820180546118d690612234565b80601f016020809104026020016040519081016040528092919081815260200182805461190290612234565b801561194f5780601f106119245761010080835404028352916020019161194f565b820191906000526020600020905b81548152906001019060200180831161193257829003601f168201915b50505050508152602001600282015481526020016003820160009054906101000a900460ff161515151581526020016003820160019054906101000a900460ff161515151581526020016003820160029054906101000a900460ff1615151515815250508483815181106119c6576119c5612265565b5b602002602001018190525081806119dc906122c3565b92505080806119ea906122c3565b9150506117f2565b505050919050565b7f000000000000000000000000000000000000000000000000000000000000000081565b6040518060c001604052806060815260200160608152602001600081526020016000151581526020016000151581526020016000151581525090565b600073ffffffffffffffffffffffffffffffffffffffff82169050919050565b6000611a8582611a5a565b9050919050565b611a9581611a7a565b82525050565b6000602082019050611ab06000830184611a8c565b92915050565b6000604051905090565b600080fd5b600080fd5b6000819050919050565b611add81611aca565b8114611ae857600080fd5b50565b600081359050611afa81611ad4565b92915050565b600060208284031215611b1657611b15611ac0565b5b6000611b2484828501611aeb565b91505092915050565b600081519050919050565b600082825260208201905092915050565b60005b83811015611b67578082015181840152602081019050611b4c565b60008484015250505050565b6000601f19601f8301169050919050565b6000611b8f82611b2d565b611b998185611b38565b9350611ba9818560208601611b49565b611bb281611b73565b840191505092915050565b611bc681611aca565b82525050565b60008115159050919050565b611be181611bcc565b82525050565b600060c0820190508181036000830152611c018189611b84565b90508181036020830152611c158188611b84565b9050611c246040830187611bbd565b611c316060830186611bd8565b611c3e6080830185611bd8565b611c4b60a0830184611bd8565b979650505050505050565b600081519050919050565b600082825260208201905092915050565b6000819050602082019050919050565b600082825260208201905092915050565b6000611c9e82611b2d565b611ca88185611c82565b9350611cb8818560208601611b49565b611cc181611b73565b840191505092915050565b611cd581611aca565b82525050565b611ce481611bcc565b82525050565b600060c0830160008301518482036000860152611d078282611c93565b91505060208301518482036020860152611d218282611c93565b9150506040830151611d366040860182611ccc565b506060830151611d496060860182611cdb565b506080830151611d5c6080860182611cdb565b5060a0830151611d6f60a0860182611cdb565b508091505092915050565b6000611d868383611cea565b905092915050565b6000602082019050919050565b6000611da682611c56565b611db08185611c61565b935083602082028501611dc285611c72565b8060005b85811015611dfe5784840389528151611ddf8582611d7a565b9450611dea83611d8e565b925060208a01995050600181019050611dc6565b50829750879550505050505092915050565b60006020820190508181036000830152611e2a8184611d9b565b905092915050565b6000602082019050611e476000830184611bbd565b92915050565b600080fd5b600080fd5b7f4e487b7100000000000000000000000000000000000000000000000000000000600052604160045260246000fd5b611e8f82611b73565b810181811067ffffffffffffffff82111715611eae57611ead611e57565b5b80604052505050565b6000611ec1611ab6565b9050611ecd8282611e86565b919050565b600067ffffffffffffffff821115611eed57611eec611e57565b5b611ef682611b73565b9050602081019050919050565b82818337600083830152505050565b6000611f25611f2084611ed2565b611eb7565b905082815260208101848484011115611f4157611f40611e52565b5b611f4c848285611f03565b509392505050565b600082601f830112611f6957611f68611e4d565b5b8135611f79848260208601611f12565b91505092915050565b611f8b81611bcc565b8114611f9657600080fd5b50565b600081359050611fa881611f82565b92915050565b600080600080600060a08688031215611fca57611fc9611ac0565b5b600086013567ffffffffffffffff811115611fe857611fe7611ac5565b5b611ff488828901611f54565b955050602086013567ffffffffffffffff81111561201557612014611ac5565b5b61202188828901611f54565b945050604061203288828901611f99565b935050606061204388828901611f99565b925050608061205488828901611f99565b9150509295509295909350565b6000806040838503121561207857612077611ac0565b5b600083013567ffffffffffffffff81111561209657612095611ac5565b5b6120a285828601611f54565b92505060206120b385828601611aeb565b9150509250929050565b600060a0820190506120d26000830188611a8c565b6120df6020830187611a8c565b6120ec6040830186611bbd565b6120f96060830185611bbd565b6121066080830184611bbd565b9695505050505050565b600060a0820190506121256000830188611bbd565b6121326020830187611bbd565b61213f6040830186611bbd565b61214c6060830185611bbd565b6121596080830184611bbd565b9695505050505050565b60006020828403121561217957612178611ac0565b5b600082013567ffffffffffffffff81111561219757612196611ac5565b5b6121a384828501611f54565b91505092915050565b6121b581611a7a565b81146121c057600080fd5b50565b6000813590506121d2816121ac565b92915050565b6000602082840312156121ee576121ed611ac0565b5b60006121fc848285016121c3565b91505092915050565b7f4e487b7100000000000000000000000000000000000000000000000000000000600052602260045260246000fd5b6000600282049050600182168061224c57607f821691505b60208210810361225f5761225e612205565b5b50919050565b7f4e487b7100000000000000000000000000000000000000000000000000000000600052603260045260246000fd5b7f4e487b7100000000000000000000000000000000000000000000000000000000600052601160045260246000fd5b60006122ce82611aca565b91507fffffffffffffffffffffffffffffffffffffffffffffffffffffffffffffffff8203612300576122ff612294565b5b600182019050919050565b7f4f6e6c79206261636b656e642073657276657220616c6c6f7765640000000000600082015250565b6000612341601b83611b38565b915061234c8261230b565b602082019050919050565b6000602082019050818103600083015261237081612334565b9050919050565b60008190508160005260206000209050919050565b60006020601f8301049050919050565b600082821b905092915050565b6000600883026123d97fffffffffffffffffffffffffffffffffffffffffffffffffffffffffffffffff8261239c565b6123e3868361239c565b95508019841693508086168417925050509392505050565b6000819050919050565b600061242061241b61241684611aca565b6123fb565b611aca565b9050919050565b6000819050919050565b61243a83612405565b61244e61244682612427565b8484546123a9565b825550505050565b600090565b612463612456565b61246e818484612431565b505050565b5b818110156124925761248760008261245b565b600181019050612474565b5050565b601f8211156124d7576124a881612377565b6124b18461238c565b810160208510156124c0578190505b6124d46124cc8561238c565b830182612473565b50505b505050565b600082821c905092915050565b60006124fa600019846008026124dc565b1980831691505092915050565b600061251383836124e9565b9150826002028217905092915050565b61252c82611b2d565b67ffffffffffffffff81111561254557612544611e57565b5b61254f8254612234565b61255a828285612496565b600060209050601f83116001811461258d576000841561257b578287015190505b6125858582612507565b8655506125ed565b601f19841661259b86612377565b60005b828110156125c35784890151825560018201915060208501945060208101905061259e565b868310156125e057848901516125dc601f8916826124e9565b8355505b6001600288020188555050505b505050505050565b600081905092915050565b600061260b82611b2d565b61261581856125f5565b9350612625818560208601611b49565b80840191505092915050565b600061263d8284612600565b915081905092915050565b600060808201905061265d6000830187611bd8565b61266a6020830186611bd8565b6126776040830185611bd8565b6126846060830184611bbd565b95945050505050565b600061269882611aca565b91506126a383611aca565b92508282039050818111156126bb576126ba612294565b5b92915050565b7f4f6e6c792061646d696e20616c6c6f7765640000000000000000000000000000600082015250565b60006126f7601283611b38565b9150612702826126c1565b602082019050919050565b60006020820190508181036000830152612726816126ea565b9050919050565b7f496e76616c6964206261636b656e640000000000000000000000000000000000600082015250565b6000612763600f83611b38565b915061276e8261272d565b602082019050919050565b6000602082019050818103600083015261279281612756565b9050919050565b60006040820190506127ae6000830185611a8c565b6127bb6020830184611a8c565b9392505050565b7f4d617820353020726563656e74206c6f67730000000000000000000000000000600082015250565b60006127f8601283611b38565b9150612803826127c2565b602082019050919050565b60006020820190508181036000830152612827816127eb565b905091905056fea26469706673582212208145d25ca9e696d794a273275efba2aff5e4d3bc802f0b54da88c01d1159d43364736f6c63430008130033",
  "immutableReferences": {
    "22": [
      {
        "length": 32,
        "start": 2898
      },
      {
        "length": 32,
        "start": 3052
      },
      {
        "length": 32,
        "start": 4308
      },
      {
        "length": 32,
        "start": 6652
      }
    ]
  },
  "source": "// SPDX-License-Identifier: MIT\r\npragma solidity ^0.8.19;\r\n\r\ncontract AccessLogger {\r\n    /**\r\n     * @title VORTEX - Blockchain-Backed Secure IoT Access Control System\r\n     * @notice Complete smart contract for immutable access logging with admin management\r\n     * @dev Production-ready for Polygon/Ganache deployment\r\n     */\r\n    \r\n    struct AccessLog {\r\n        string userId;          // \"USER_001\", \"UNKNOWN_USER\", \"NO_RFID_CARD\", \"PYTHON_ERROR\"\r\n        string deviceId;        // \"DOOR_101\", \"GATE_001\"\r\n        uint256 timestamp;      // block.timestamp (immutable)\r\n        bool rfidMatched;       // RFID card detected\r\n        bool imageMatched;      // Python /verify result\r\n        bool accessGranted;     // Final decision (RFID AND image)\r\n    }\r\n\r\n    // State variables\r\n    AccessLog[] public accessLogs;\r\n    address public backend;       //  FIXED: Mutable (admin can update if compromised)\r\n    address public immutable admin;       // Admin wallet (deployment address)\r\n    uint256 public totalLogs;             // Log counter\r\n    mapping(string => uint256[]) public userLogs;  // userId  log indices\r\n    mapping(string => uint256[]) public deviceLogs; // deviceId  log indices\r\n\r\n    // Events for frontend indexing\r\n    event AccessLogged(\r\n        string indexed userId,\r\n        string indexed deviceId,\r\n        bool rfidMatched,\r\n        bool imageMatched,\r\n        bool accessGranted,\r\n        uint256 timestamp,\r\n        uint256 indexed logId\r\n    );\r\n    event BackendUpdated(address oldBackend, address newBackend);\r\n    event AdminVerified(address indexed wallet, bool isAdmin);\r\n\r\n    /**\r\n     * @dev Constructor sets backend and admin addresses\r\n     * @param _backend Node.js backend server address\r\n     */\r\n    constructor(address _backend) {\r\n        require(_backend != address(0), \"Invalid backend address\");\r\n        backend = _backend;\r\n        admin = msg.sender;  // Deployer becomes admin\r\n    }\r\n\r\n    modifier onlyBackend() {\r\n        require(msg.sender == backend, \"Only backend server allowed\");\r\n        _;\r\n    }\r\n\r\n    modifier onlyAdmin() {\r\n        require(msg.sender == admin, \"Only admin allowed\");\r\n        _;\r\n    }\r\n\r\n    /**\r\n     * @notice Core function: Backend calls this after RFID + Python face verification\r\n     * @param _userId Matched user or \"UNKNOWN_USER\"/\"NO_RFID_CARD\"\r\n     * @param _deviceId IoT device identifier\r\n     * @param _rfidMatched RFID card detected\r\n     * @param _imageMatched Python /verify result (similarity >= 70%)\r\n     * @param _accessGranted Final decision (RFID && image)\r\n     */\r\n    function logAccessAttempt(\r\n        string memory _userId,\r\n        string memory _deviceId,\r\n        bool _rfidMatched,\r\n        bool _imageMatched,\r\n        bool _accessGranted\r\n    ) external onlyBackend {\r\n        uint256 logId = totalLogs;\r\n        \r\n        AccessLog memory log = AccessLog({\r\n            userId: _userId,\r\n            deviceId: _deviceId,\r\n            timestamp: block.timestamp,\r\n            rfidMatched: _rfidMatched,\r\n            imageMatched: _imageMatched,\r\n            accessGranted: _accessGranted\r\n        });\r\n\r\n        accessLogs.push(log);\r\n        totalLogs++;\r\n\r\n        // Index for efficient queries\r\n        userLogs[_userId].push(logId);\r\n        deviceLogs[_deviceId].push(logId);\r\n\r\n        emit AccessLogged(\r\n            _userId,\r\n            _deviceId,\r\n            _rfidMatched,\r\n            _imageMatched,\r\n            _accessGranted,\r\n            block.timestamp,\r\n            logId\r\n        );\r\n    }\r\n\r\n    /**\r\n     * @notice Frontend calls this to verify admin status\r\n     * @return adminAddress Admin wallet address\r\n     */\r\n    function getAdmin() external view returns (address adminAddress) {\r\n        return admin;\r\n    }\r\n\r\n    /**\r\n     * @notice Get all access logs (for dashboard)\r\n     * @return allLogs Array of all AccessLog structs\r\n     */\r\n    function getAllAccessLogs() external view returns (AccessLog[] memory allLogs) {\r\n        return accessLogs;\r\n    }\r\n\r\n    /**\r\n     * @notice Get total number of logs\r\n     * @return logCount Total log entries\r\n     */\r\n    function getLogCount() external view returns (uint256 logCount) {\r\n        return totalLogs;\r\n    }\r\n\r\n    /**\r\n     * @notice Get recent logs (last N logs for dashboard pagination)\r\n     * @param _count Number of recent logs to return\r\n     * @return recentLogs Recent AccessLog array\r\n     */\r\n    function getRecentLogs(uint256 _count) external view returns (AccessLog[] memory recentLogs) {\r\n        require(_count <= 50, \"Max 50 recent logs\");\r\n        uint256 startIndex = totalLogs > _count ? totalLogs - _count : 0;\r\n        \r\n        recentLogs = new AccessLog[](_count);\r\n        uint256 index = 0;\r\n        \r\n        for (uint256 i = startIndex; i < totalLogs && index < _count; i++) {\r\n            recentLogs[index] = accessLogs[i];\r\n            index++;\r\n        }\r\n    }\r\n\r\n    /**\r\n     * @notice Get logs for specific user (efficient indexing)\r\n     * @param _userId User identifier\r\n     * @return userAccessLogs User-specific AccessLog array\r\n     */\r\n    function getLogsByUser(string memory _userId) external view returns (AccessLog[] memory userAccessLogs) {\r\n        uint256[] memory indices = userLogs[_userId];\r\n        userAccessLogs = new AccessLog[](indices.length);\r\n        \r\n        for (uint256 i = 0; i < indices.length; i++) {\r\n            userAccessLogs[i] = accessLogs[indices[i]];\r\n        }\r\n    }\r\n\r\n    /**\r\n     * @notice Get logs for specific device (efficient indexing)\r\n     * @param _deviceId Device identifier\r\n     * @return deviceAccessLogs Device-specific AccessLog array\r\n     */\r\n    function getLogsByDevice(string memory _deviceId) external view returns (AccessLog[] memory deviceAccessLogs) {\r\n        uint256[] memory indices = deviceLogs[_deviceId];\r\n        deviceAccessLogs = new AccessLog[](indices.length);\r\n        \r\n        for (uint256 i = 0; i < indices.length; i++) {\r\n            deviceAccessLogs[i] = accessLogs[indices[i]];\r\n        }\r\n    }\r\n\r\n    /**\r\n     * @notice Get suspicious activity logs (RFID match but image fail)\r\n     * @return suspiciousAccessLogs Suspicious AccessLog array\r\n     */\r\n    function getSuspiciousLogs() external view returns (AccessLog[] memory suspiciousAccessLogs) {\r\n        uint256 count = 0;\r\n        for (uint256 i = 0; i < totalLogs; i++) {\r\n            if (accessLogs[i].rfidMatched && !accessLogs[i].imageMatched) {\r\n                count++;\r\n            }\r\n        }\r\n        \r\n        suspiciousAccessLogs = new AccessLog[](count);\r\n        uint256 index = 0;\r\n        for (uint256 i = 0; i < totalLogs; i++) {\r\n            if (accessLogs[i].rfidMatched && !accessLogs[i].imageMatched) {\r\n                suspiciousAccessLogs[index] = accessLogs[i];\r\n                index++;\r\n            }\r\n        }\r\n    }\r\n\r\n    /**\r\n     * @notice Get access statistics (for analytics dashboard)\r\n     * @return totalAttempts Total access attempts\r\n     * @return successfulAccess Successful grants\r\n     * @return failedAccess Failed attempts\r\n     * @return suspiciousAttempts RFID match + image fail\r\n     * @return avgAccessTime Average access time (placeholder)\r\n     */\r\n    function getAccessStats() external view returns (\r\n        uint256 totalAttempts,\r\n        uint256 successfulAccess,\r\n        uint256 failedAccess,\r\n        uint256 suspiciousAttempts,\r\n        uint256 avgAccessTime\r\n    ) {\r\n        totalAttempts = totalLogs;\r\n        uint256 successCount = 0;\r\n        uint256 suspiciousCount = 0;\r\n\r\n        for (uint256 i = 0; i < totalLogs; i++) {\r\n            if (accessLogs[i].accessGranted) {\r\n                successCount++;\r\n            }\r\n            if (accessLogs[i].rfidMatched && !accessLogs[i].imageMatched) {\r\n                suspiciousCount++;\r\n            }\r\n        }\r\n\r\n        successfulAccess = successCount;\r\n        failedAccess = totalAttempts - successCount;\r\n        suspiciousAttempts = suspiciousCount;\r\n        avgAccessTime = 0;\r\n    }\r\n\r\n    /**\r\n     * @notice Emergency function: Admin can update backend address\r\n     * @dev Use only if backend key is compromised\r\n     * @param _newBackend New backend address\r\n     */\r\n    function updateBackend(address _newBackend) external onlyAdmin {\r\n        require(_newBackend != address(0), \"Invalid backend\");\r\n        address oldBackend = backend;\r\n        backend = _newBackend;\r\n        emit BackendUpdated(oldBackend, _newBackend);\r\n    }\r\n\r\n    /**\r\n     * @notice Get contract deployment info\r\n     * @return backendAddr Backend server address\r\n     * @return adminAddr Admin wallet address\r\n     * @return totalLogCount Total log entries\r\n     * @return firstLogTime First log timestamp\r\n     * @return lastLogTime Last log timestamp\r\n     */\r\n    function getContractInfo() external view returns (\r\n        address backendAddr,\r\n        address adminAddr,\r\n        uint256 totalLogCount,\r\n        uint256 firstLogTime,\r\n        uint256 lastLogTime\r\n    ) {\r\n        backendAddr = backend;\r\n        adminAddr = admin;\r\n        totalLogCount = totalLogs;\r\n        firstLogTime = totalLogs > 0 ? accessLogs[0].timestamp : 0;\r\n        lastLogTime = totalLogs > 0 ? accessLogs[totalLogs - 1].timestamp : 0;\r\n    }\r\n}\r\n",
  "sourcePath": "D:\\vortex\\access-logger\\contracts\\AccessLogger.sol",
  "compiler": {
    "name": "solc",
    "version": "0.8.19+commit.7dd6d404.Emscripten.clang"
  },
  "schemaVersion": "3.4.16",
  "updatedAt": "2026-01-09T16:30:50.013Z",
  "networkType": "ethereum",
  "devdoc": {
    "kind": "dev",
    "methods": {
      "constructor": {
        "details": "Constructor sets backend and admin addresses",
        "params": {
          "_backend": "Node.js backend server address"
        }
      },
      "getAccessStats()": {
        "returns": {
          "avgAccessTime": "Average access time (placeholder)",
          "failedAccess": "Failed attempts",
          "successfulAccess": "Successful grants",
          "suspiciousAttempts": "RFID match + image fail",
          "totalAttempts": "Total access attempts"
        }
      },
      "getAdmin()": {
        "returns": {
          "adminAddress": "Admin wallet address"
        }
      },
      "getAllAccessLogs()": {
        "returns": {
          "allLogs": "Array of all AccessLog structs"
        }
      },
      "getContractInfo()": {
        "returns": {
          "adminAddr": "Admin wallet address",
          "backendAddr": "Backend server address",
          "firstLogTime": "First log timestamp",
          "lastLogTime": "Last log timestamp",
          "totalLogCount": "Total log entries"
        }
      },
      "getLogCount()": {
        "returns": {
          "logCount": "Total log entries"
        }
      },
      "getLogsByDevice(string)": {
        "params": {
          "_deviceId": "Device identifier"
        },
        "returns": {
          "deviceAccessLogs": "Device-specific AccessLog array"
        }
      },
      "getLogsByUser(string)": {
        "params": {
          "_userId": "User identifier"
        },
        "returns": {
          "userAccessLogs": "User-specific AccessLog array"
        }
      },
      "getRecentLogs(uint256)": {
        "params": {
          "_count": "Number of recent logs to return"
        },
        "returns": {
          "recentLogs": "Recent AccessLog array"
        }
      },
      "getSuspiciousLogs()": {
        "returns": {
          "suspiciousAccessLogs": "Suspicious AccessLog array"
        }
      },
      "logAccessAttempt(string,string,bool,bool,bool)": {
        "params": {
          "_accessGranted": "Final decision (RFID && image)",
          "_deviceId": "IoT device identifier",
          "_imageMatched": "Python /verify result (similarity >= 70%)",
          "_rfidMatched": "RFID card detected",
          "_userId": "Matched user or \"UNKNOWN_USER\"/\"NO_RFID_CARD\""
        }
      },
      "updateBackend(address)": {
        "details": "Use only if backend key is compromised",
        "params": {
          "_newBackend": "New backend address"
        }
      }
    },
    "version": 1
  },
  "userdoc": {
    "kind": "user",
    "methods": {
      "getAccessStats()": {
        "notice": "Get access statistics (for analytics dashboard)"
      },
      "getAdmin()": {
        "notice": "Frontend calls this to verify admin status"
      },
      "getAllAccessLogs()": {
        "notice": "Get all access logs (for dashboard)"
      },
      "getContractInfo()": {
        "notice": "Get contract deployment info"
      },
      "getLogCount()": {
        "notice": "Get total number of logs"
      },
      "getLogsByDevice(string)": {
        "notice": "Get logs for specific device (efficient indexing)"
      },
      "getLogsByUser(string)": {
        "notice": "Get logs for specific user (efficient indexing)"
      },
      "getRecentLogs(uint256)": {
        "notice": "Get recent logs (last N logs for dashboard pagination)"
      },
      "getSuspiciousLogs()": {
        "notice": "Get suspicious activity logs (RFID match but image fail)"
      },
      "logAccessAttempt(string,string,bool,bool,bool)": {
        "notice": "Core function: Backend calls this after RFID + Python face verification"
      },
      "updateBackend(address)": {
        "notice": "Emergency function: Admin can update backend address"
      }
    },
    "version": 1
  }
}