{
  "contractName": "AccessLogger",
  "abi": [
    {
      "inputs": [
        {
          "internalType": "address",
          "name": "_backend",
          "type": "address"
        }
      ],
      "stateMutability": "nonpayable",
      "type": "constructor"
    },
    {
      "anonymous": false,
      "inputs": [
        {
          "indexed": true,
          "internalType": "string",
          "name": "userId",
          "type": "string"
        },
        {
          "indexed": true,
          "internalType": "string",
          "name": "deviceId",
          "type": "string"
        },
        {
          "indexed": false,
          "internalType": "bool",
          "name": "granted",
          "type": "bool"
        },
        {
          "indexed": false,
          "internalType": "uint256",
          "name": "timestamp",
          "type": "uint256"
        }
      ],
      "name": "AccessLogged",
      "type": "event"
    },
    {
      "inputs": [
        {
          "internalType": "uint256",
          "name": "",
          "type": "uint256"
        }
      ],
      "name": "accessLogs",
      "outputs": [
        {
          "internalType": "string",
          "name": "userId",
          "type": "string"
        },
        {
          "internalType": "string",
          "name": "deviceId",
          "type": "string"
        },
        {
          "internalType": "uint256",
          "name": "timestamp",
          "type": "uint256"
        },
        {
          "internalType": "bool",
          "name": "granted",
          "type": "bool"
        }
      ],
      "stateMutability": "view",
      "type": "function",
      "constant": true
    },
    {
      "inputs": [],
      "name": "backend",
      "outputs": [
        {
          "internalType": "address",
          "name": "",
          "type": "address"
        }
      ],
      "stateMutability": "view",
      "type": "function",
      "constant": true
    },
    {
      "inputs": [
        {
          "internalType": "string",
          "name": "_userId",
          "type": "string"
        },
        {
          "internalType": "string",
          "name": "_deviceId",
          "type": "string"
        },
        {
          "internalType": "bool",
          "name": "_granted",
          "type": "bool"
        }
      ],
      "name": "logVerifiedAccess",
      "outputs": [],
      "stateMutability": "nonpayable",
      "type": "function"
    },
    {
      "inputs": [],
      "name": "getAllAccessLogs",
      "outputs": [
        {
          "components": [
            {
              "internalType": "string",
              "name": "userId",
              "type": "string"
            },
            {
              "internalType": "string",
              "name": "deviceId",
              "type": "string"
            },
            {
              "internalType": "uint256",
              "name": "timestamp",
              "type": "uint256"
            },
            {
              "internalType": "bool",
              "name": "granted",
              "type": "bool"
            }
          ],
          "internalType": "struct AccessLogger.AccessLog[]",
          "name": "",
          "type": "tuple[]"
        }
      ],
      "stateMutability": "view",
      "type": "function",
      "constant": true
    },
    {
      "inputs": [],
      "name": "getLogCount",
      "outputs": [
        {
          "internalType": "uint256",
          "name": "",
          "type": "uint256"
        }
      ],
      "stateMutability": "view",
      "type": "function",
      "constant": true
    }
  ],
  "bytecode": "0x60806040523480156200001157600080fd5b50604051620010a6380380620010a68339818101604052810190620000379190620000e9565b80600160006101000a81548173ffffffffffffffffffffffffffffffffffffffff021916908373ffffffffffffffffffffffffffffffffffffffff160217905550506200011b565b600080fd5b600073ffffffffffffffffffffffffffffffffffffffff82169050919050565b6000620000b18262000084565b9050919050565b620000c381620000a4565b8114620000cf57600080fd5b50565b600081519050620000e381620000b8565b92915050565b6000602082840312156200010257620001016200007f565b5b60006200011284828501620000d2565b91505092915050565b610f7b806200012b6000396000f3fe608060405234801561001057600080fd5b50600436106100575760003560e01c8063099e41331461005c57806359741ba01461007a578063618033db146100ad578063cb459ffd146100cb578063f41bf09c146100e9575b600080fd5b610064610105565b6040516100719190610623565b60405180910390f35b610094600480360381019061008f9190610688565b61012b565b6040516100a4949392919061076f565b60405180910390f35b6100b5610288565b6040516100c291906107c2565b60405180910390f35b6100d3610294565b6040516100e09190610971565b60405180910390f35b61010360048036038101906100fe9190610af4565b61043c565b005b600160009054906101000a900473ffffffffffffffffffffffffffffffffffffffff1681565b6000818154811061013b57600080fd5b906000526020600020906004020160009150905080600001805461015e90610bae565b80601f016020809104026020016040519081016040528092919081815260200182805461018a90610bae565b80156101d75780601f106101ac576101008083540402835291602001916101d7565b820191906000526020600020905b8154815290600101906020018083116101ba57829003601f168201915b5050505050908060010180546101ec90610bae565b80601f016020809104026020016040519081016040528092919081815260200182805461021890610bae565b80156102655780601f1061023a57610100808354040283529160200191610265565b820191906000526020600020905b81548152906001019060200180831161024857829003601f168201915b5050505050908060020154908060030160009054906101000a900460ff16905084565b60008080549050905090565b60606000805480602002602001604051908101604052809291908181526020016000905b8282101561043357838290600052602060002090600402016040518060800160405290816000820180546102eb90610bae565b80601f016020809104026020016040519081016040528092919081815260200182805461031790610bae565b80156103645780601f1061033957610100808354040283529160200191610364565b820191906000526020600020905b81548152906001019060200180831161034757829003601f168201915b5050505050815260200160018201805461037d90610bae565b80601f01602080910402602001604051908101604052809291908181526020018280546103a990610bae565b80156103f65780601f106103cb576101008083540402835291602001916103f6565b820191906000526020600020905b8154815290600101906020018083116103d957829003601f168201915b50505050508152602001600282015481526020016003820160009054906101000a900460ff161515151581525050815260200190600101906102b8565b50505050905090565b600160009054906101000a900473ffffffffffffffffffffffffffffffffffffffff1673ffffffffffffffffffffffffffffffffffffffff163373ffffffffffffffffffffffffffffffffffffffff16146104cc576040517f08c379a00000000000000000000000000000000000000000000000000000000081526004016104c390610c2b565b60405180910390fd5b600060405180608001604052808581526020018481526020014281526020018315158152509050600081908060018154018082558091505060019003906000526020600020906004020160009091909190915060008201518160000190816105349190610df7565b50602082015181600101908161054a9190610df7565b506040820151816002015560608201518160030160006101000a81548160ff0219169083151502179055505050826040516105859190610f05565b60405180910390208460405161059b9190610f05565b60405180910390207faba4b1cf3aee46cf172b3c0777f57f6ca8ca7a142f8b41dffba7c8e57dbee8c784426040516105d4929190610f1c565b60405180910390a350505050565b600073ffffffffffffffffffffffffffffffffffffffff82169050919050565b600061060d826105e2565b9050919050565b61061d81610602565b82525050565b60006020820190506106386000830184610614565b92915050565b6000604051905090565b600080fd5b600080fd5b6000819050919050565b61066581610652565b811461067057600080fd5b50565b6000813590506106828161065c565b92915050565b60006020828403121561069e5761069d610648565b5b60006106ac84828501610673565b91505092915050565b600081519050919050565b600082825260208201905092915050565b60005b838110156106ef5780820151818401526020810190506106d4565b60008484015250505050565b6000601f19601f8301169050919050565b6000610717826106b5565b61072181856106c0565b93506107318185602086016106d1565b61073a816106fb565b840191505092915050565b61074e81610652565b82525050565b60008115159050919050565b61076981610754565b82525050565b60006080820190508181036000830152610789818761070c565b9050818103602083015261079d818661070c565b90506107ac6040830185610745565b6107b96060830184610760565b95945050505050565b60006020820190506107d76000830184610745565b92915050565b600081519050919050565b600082825260208201905092915050565b6000819050602082019050919050565b600082825260208201905092915050565b6000610825826106b5565b61082f8185610809565b935061083f8185602086016106d1565b610848816106fb565b840191505092915050565b61085c81610652565b82525050565b61086b81610754565b82525050565b6000608083016000830151848203600086015261088e828261081a565b915050602083015184820360208601526108a8828261081a565b91505060408301516108bd6040860182610853565b5060608301516108d06060860182610862565b508091505092915050565b60006108e78383610871565b905092915050565b6000602082019050919050565b6000610907826107dd565b61091181856107e8565b935083602082028501610923856107f9565b8060005b8581101561095f578484038952815161094085826108db565b945061094b836108ef565b925060208a01995050600181019050610927565b50829750879550505050505092915050565b6000602082019050818103600083015261098b81846108fc565b905092915050565b600080fd5b600080fd5b7f4e487b7100000000000000000000000000000000000000000000000000000000600052604160045260246000fd5b6109d5826106fb565b810181811067ffffffffffffffff821117156109f4576109f361099d565b5b80604052505050565b6000610a0761063e565b9050610a1382826109cc565b919050565b600067ffffffffffffffff821115610a3357610a3261099d565b5b610a3c826106fb565b9050602081019050919050565b82818337600083830152505050565b6000610a6b610a6684610a18565b6109fd565b905082815260208101848484011115610a8757610a86610998565b5b610a92848285610a49565b509392505050565b600082601f830112610aaf57610aae610993565b5b8135610abf848260208601610a58565b91505092915050565b610ad181610754565b8114610adc57600080fd5b50565b600081359050610aee81610ac8565b92915050565b600080600060608486031215610b0d57610b0c610648565b5b600084013567ffffffffffffffff811115610b2b57610b2a61064d565b5b610b3786828701610a9a565b935050602084013567ffffffffffffffff811115610b5857610b5761064d565b5b610b6486828701610a9a565b9250506040610b7586828701610adf565b9150509250925092565b7f4e487b7100000000000000000000000000000000000000000000000000000000600052602260045260246000fd5b60006002820490506001821680610bc657607f821691505b602082108103610bd957610bd8610b7f565b5b50919050565b7f6e6f74206261636b656e64000000000000000000000000000000000000000000600082015250565b6000610c15600b836106c0565b9150610c2082610bdf565b602082019050919050565b60006020820190508181036000830152610c4481610c08565b9050919050565b60008190508160005260206000209050919050565b60006020601f8301049050919050565b600082821b905092915050565b600060088302610cad7fffffffffffffffffffffffffffffffffffffffffffffffffffffffffffffffff82610c70565b610cb78683610c70565b95508019841693508086168417925050509392505050565b6000819050919050565b6000610cf4610cef610cea84610652565b610ccf565b610652565b9050919050565b6000819050919050565b610d0e83610cd9565b610d22610d1a82610cfb565b848454610c7d565b825550505050565b600090565b610d37610d2a565b610d42818484610d05565b505050565b5b81811015610d6657610d5b600082610d2f565b600181019050610d48565b5050565b601f821115610dab57610d7c81610c4b565b610d8584610c60565b81016020851015610d94578190505b610da8610da085610c60565b830182610d47565b50505b505050565b600082821c905092915050565b6000610dce60001984600802610db0565b1980831691505092915050565b6000610de78383610dbd565b9150826002028217905092915050565b610e00826106b5565b67ffffffffffffffff811115610e1957610e1861099d565b5b610e238254610bae565b610e2e828285610d6a565b600060209050601f831160018114610e615760008415610e4f578287015190505b610e598582610ddb565b865550610ec1565b601f198416610e6f86610c4b565b60005b82811015610e9757848901518255600182019150602085019450602081019050610e72565b86831015610eb45784890151610eb0601f891682610dbd565b8355505b6001600288020188555050505b505050505050565b600081905092915050565b6000610edf826106b5565b610ee98185610ec9565b9350610ef98185602086016106d1565b80840191505092915050565b6000610f118284610ed4565b915081905092915050565b6000604082019050610f316000830185610760565b610f3e6020830184610745565b939250505056fea2646970667358221220eafcd4fbb8d5415886dcfd58ccdb28799c332e0940b95d185d989f298b9b996764736f6c63430008130033",
  "immutableReferences": {},
  "source": "// SPDX-License-Identifier: MIT\r\npragma solidity ^0.8.19;\r\n\r\ncontract AccessLogger {\r\n    struct AccessLog {\r\n        string userId;\r\n        string deviceId;\r\n        uint256 timestamp;\r\n        bool granted;\r\n    }\r\n\r\n    AccessLog[] public accessLogs;\r\n    address public backend;\r\n\r\n    event AccessLogged(\r\n        string indexed userId,\r\n        string indexed deviceId,\r\n        bool granted,\r\n        uint256 timestamp\r\n    );\r\n\r\n    constructor(address _backend) {\r\n        backend = _backend;\r\n    }\r\n\r\n    modifier onlyBackend() {\r\n        require(msg.sender == backend, \"not backend\");\r\n        _;\r\n    }\r\n\r\n    function logVerifiedAccess(\r\n        string memory _userId,\r\n        string memory _deviceId,\r\n        bool _granted\r\n    ) external onlyBackend {\r\n        AccessLog memory logEntry = AccessLog({\r\n            userId: _userId,\r\n            deviceId: _deviceId,\r\n            timestamp: block.timestamp,\r\n            granted: _granted\r\n        });\r\n\r\n        accessLogs.push(logEntry);\r\n\r\n        emit AccessLogged(_userId, _deviceId, _granted, block.timestamp);\r\n    }\r\n\r\n    function getAllAccessLogs() external view returns (AccessLog[] memory) {\r\n        return accessLogs;\r\n    }\r\n\r\n    function getLogCount() external view returns (uint256) {\r\n        return accessLogs.length;\r\n    }\r\n}\r\n",
  "sourcePath": "C:\\Users\\srini\\OneDrive\\Desktop\\Blockchain\\access-logger\\contracts\\AccessLogger.sol",
  "compiler": {
    "name": "solc",
    "version": "0.8.19+commit.7dd6d404.Emscripten.clang"
  },
  "schemaVersion": "3.4.16",
  "updatedAt": "2026-01-09T08:11:39.234Z",
  "networkType": "ethereum",
  "devdoc": {
    "kind": "dev",
    "methods": {},
    "version": 1
  },
  "userdoc": {
    "kind": "user",
    "methods": {},
    "version": 1
  }
}